{
  "contractName": "VotingApp",
  "abi": [
    {
      "inputs": [],
      "payable": false,
      "stateMutability": "nonpayable",
      "type": "constructor"
    },
    {
      "constant": true,
      "inputs": [],
      "name": "admin",
      "outputs": [
        {
          "internalType": "address",
          "name": "",
          "type": "address"
        }
      ],
      "payable": false,
      "stateMutability": "view",
      "type": "function"
    },
    {
      "constant": true,
      "inputs": [],
      "name": "adminGoogleId",
      "outputs": [
        {
          "internalType": "string",
          "name": "",
          "type": "string"
        }
      ],
      "payable": false,
      "stateMutability": "view",
      "type": "function"
    },
    {
      "constant": true,
      "inputs": [],
      "name": "name",
      "outputs": [
        {
          "internalType": "string",
          "name": "",
          "type": "string"
        }
      ],
      "payable": false,
      "stateMutability": "view",
      "type": "function"
    }
  ],
  "bytecode": "0x608060405234801561001057600080fd5b506040518060400160405280600981526020017f566f74696e6741707000000000000000000000000000000000000000000000008152506000908051906020019061005c9291906100c9565b5033600260006101000a81548173ffffffffffffffffffffffffffffffffffffffff021916908373ffffffffffffffffffffffffffffffffffffffff16021790555060405180602001604052806000815250600190805190602001906100c39291906100c9565b5061016e565b828054600181600116156101000203166002900490600052602060002090601f016020900481019282601f1061010a57805160ff1916838001178555610138565b82800160010185558215610138579182015b8281111561013757825182559160200191906001019061011c565b5b5090506101459190610149565b5090565b61016b91905b8082111561016757600081600090555060010161014f565b5090565b90565b61035c8061017d6000396000f3fe608060405234801561001057600080fd5b50600436106100415760003560e01c806306fdde0314610046578063737eca7c14610064578063f851a44014610082575b600080fd5b61004e6100a0565b60405161005b9190610265565b60405180910390f35b61006c61013e565b6040516100799190610265565b60405180910390f35b61008a6101dc565b604051610097919061024a565b60405180910390f35b60008054600181600116156101000203166002900480601f0160208091040260200160405190810160405280929190818152602001828054600181600116156101000203166002900480156101365780601f1061010b57610100808354040283529160200191610136565b820191906000526020600020905b81548152906001019060200180831161011957829003601f168201915b505050505081565b60018054600181600116156101000203166002900480601f0160208091040260200160405190810160405280929190818152602001828054600181600116156101000203166002900480156101d45780601f106101a9576101008083540402835291602001916101d4565b820191906000526020600020905b8154815290600101906020018083116101b757829003601f168201915b505050505081565b600260009054906101000a900473ffffffffffffffffffffffffffffffffffffffff1681565b61020b816102a3565b82525050565b600061021c82610287565b6102268185610292565b93506102368185602086016102d5565b61023f81610308565b840191505092915050565b600060208201905061025f6000830184610202565b92915050565b6000602082019050818103600083015261027f8184610211565b905092915050565b600081519050919050565b600082825260208201905092915050565b60006102ae826102b5565b9050919050565b600073ffffffffffffffffffffffffffffffffffffffff82169050919050565b60005b838110156102f35780820151818401526020810190506102d8565b83811115610302576000848401525b50505050565b6000601f19601f830116905091905056fea365627a7a72315820a154c31cda7c9b2746db645a18b6b91e62872ec7ead66d50a333a9c0dfa784476c6578706572696d656e74616cf564736f6c63430005100040",
  "source": "pragma solidity ^0.5.0;\r\npragma experimental ABIEncoderV2;\r\n\r\ncontract VotingApp{\r\n\tstring public name;\r\n\tstring public adminGoogleId;\r\n\taddress public admin;\r\n\r\n\tconstructor() public{\r\n\t\tname = \"VotingApp\";\r\n\t\tadmin = msg.sender;\r\n\t\tadminGoogleId = \"\";\r\n\t}\r\n}",
  "sourcePath": "D:\\Engineering\\Dev\\Blockchain Development\\Projects\\VotingApp\\src\\contracts\\VotingApp.sol",
  "compiler": {
    "name": "solc",
    "version": "0.5.16+commit.9c3226ce.Emscripten.clang"
  },
  "schemaVersion": "3.4.3",
  "updatedAt": "2021-10-31T09:34:59.565Z",
  "networkType": "ethereum",
  "devdoc": {
    "methods": {}
  },
  "userdoc": {
    "methods": {}
  }
}