{
  "contractName": "VotingApp",
  "abi": [
    {
      "inputs": [],
      "payable": false,
      "stateMutability": "nonpayable",
      "type": "constructor"
    },
    {
      "constant": true,
      "inputs": [],
      "name": "name",
      "outputs": [
        {
          "internalType": "string",
          "name": "",
          "type": "string"
        }
      ],
      "payable": false,
      "stateMutability": "view",
      "type": "function"
    }
  ],
  "bytecode": "0x608060405234801561001057600080fd5b506040518060400160405280600981526020017f566f74696e6741707000000000000000000000000000000000000000000000008152506000908051906020019061005c929190610062565b50610107565b828054600181600116156101000203166002900490600052602060002090601f016020900481019282601f106100a357805160ff19168380011785556100d1565b828001600101855582156100d1579182015b828111156100d05782518255916020019190600101906100b5565b5b5090506100de91906100e2565b5090565b61010491905b808211156101005760008160009055506001016100e8565b5090565b90565b6101ea806101166000396000f3fe608060405234801561001057600080fd5b506004361061002b5760003560e01c806306fdde0314610030575b600080fd5b61003861004e565b6040516100459190610125565b60405180910390f35b60008054600181600116156101000203166002900480601f0160208091040260200160405190810160405280929190818152602001828054600181600116156101000203166002900480156100e45780601f106100b9576101008083540402835291602001916100e4565b820191906000526020600020905b8154815290600101906020018083116100c757829003601f168201915b505050505081565b60006100f782610147565b6101018185610152565b9350610111818560208601610163565b61011a81610196565b840191505092915050565b6000602082019050818103600083015261013f81846100ec565b905092915050565b600081519050919050565b600082825260208201905092915050565b60005b83811015610181578082015181840152602081019050610166565b83811115610190576000848401525b50505050565b6000601f19601f830116905091905056fea365627a7a723158201b9fa884a567d40bf0fef74246f462b3956e4eed5e01a7d55a4d06c54cacab766c6578706572696d656e74616cf564736f6c63430005100040",
  "source": "pragma solidity ^0.5.0;\r\npragma experimental ABIEncoderV2;\r\n\r\ncontract VotingApp{\r\n\tstring public name;\r\n\r\n\tconstructor() public{\r\n\t\tname = \"VotingApp\";\r\n\t}\r\n}",
  "sourcePath": "D:\\Engineering\\Dev\\Blockchain Development\\Projects\\VotingApp\\src\\contracts\\VotingApp.sol",
  "compiler": {
    "name": "solc",
    "version": "0.5.16+commit.9c3226ce.Emscripten.clang"
  },
  "schemaVersion": "3.4.3",
  "updatedAt": "2021-10-30T06:34:18.422Z",
  "networkType": "ethereum",
  "devdoc": {
    "methods": {}
  },
  "userdoc": {
    "methods": {}
  }
}