{
  "contractName": "VotingApp",
  "abi": [
    {
      "inputs": [],
      "payable": false,
      "stateMutability": "nonpayable",
      "type": "constructor"
    },
    {
      "anonymous": false,
      "inputs": [
        {
          "indexed": true,
          "internalType": "uint256",
          "name": "candidateId",
          "type": "uint256"
        },
        {
          "indexed": false,
          "internalType": "string",
          "name": "name",
          "type": "string"
        },
        {
          "indexed": false,
          "internalType": "uint256",
          "name": "votesCount",
          "type": "uint256"
        }
      ],
      "name": "CandidateCreated",
      "type": "event"
    },
    {
      "anonymous": false,
      "inputs": [
        {
          "indexed": true,
          "internalType": "uint256",
          "name": "candidateId",
          "type": "uint256"
        },
        {
          "indexed": false,
          "internalType": "address",
          "name": "voterId",
          "type": "address"
        },
        {
          "indexed": false,
          "internalType": "uint256",
          "name": "votesCount",
          "type": "uint256"
        }
      ],
      "name": "CastedVote",
      "type": "event"
    },
    {
      "anonymous": false,
      "inputs": [
        {
          "indexed": false,
          "internalType": "uint256",
          "name": "phase",
          "type": "uint256"
        }
      ],
      "name": "PhaseChanged",
      "type": "event"
    },
    {
      "anonymous": false,
      "inputs": [
        {
          "indexed": false,
          "internalType": "uint256",
          "name": "id",
          "type": "uint256"
        },
        {
          "indexed": false,
          "internalType": "address",
          "name": "voterId",
          "type": "address"
        },
        {
          "indexed": false,
          "internalType": "string",
          "name": "googleId",
          "type": "string"
        },
        {
          "indexed": false,
          "internalType": "bool",
          "name": "isVotingApproved",
          "type": "bool"
        }
      ],
      "name": "VoterAprroved",
      "type": "event"
    },
    {
      "anonymous": false,
      "inputs": [
        {
          "indexed": false,
          "internalType": "uint256",
          "name": "id",
          "type": "uint256"
        },
        {
          "indexed": false,
          "internalType": "address",
          "name": "voterId",
          "type": "address"
        },
        {
          "indexed": false,
          "internalType": "string",
          "name": "googleId",
          "type": "string"
        },
        {
          "indexed": false,
          "internalType": "bool",
          "name": "isVotingApproved",
          "type": "bool"
        }
      ],
      "name": "VoterRegistered",
      "type": "event"
    },
    {
      "constant": true,
      "inputs": [],
      "name": "admin",
      "outputs": [
        {
          "internalType": "address",
          "name": "",
          "type": "address"
        }
      ],
      "payable": false,
      "stateMutability": "view",
      "type": "function"
    },
    {
      "constant": true,
      "inputs": [],
      "name": "adminGoogleId",
      "outputs": [
        {
          "internalType": "string",
          "name": "",
          "type": "string"
        }
      ],
      "payable": false,
      "stateMutability": "view",
      "type": "function"
    },
    {
      "constant": true,
      "inputs": [
        {
          "internalType": "uint256",
          "name": "",
          "type": "uint256"
        }
      ],
      "name": "candidates",
      "outputs": [
        {
          "internalType": "uint256",
          "name": "candidateId",
          "type": "uint256"
        },
        {
          "internalType": "string",
          "name": "name",
          "type": "string"
        },
        {
          "internalType": "uint256",
          "name": "votesCount",
          "type": "uint256"
        }
      ],
      "payable": false,
      "stateMutability": "view",
      "type": "function"
    },
    {
      "constant": true,
      "inputs": [],
      "name": "candidatesCount",
      "outputs": [
        {
          "internalType": "uint256",
          "name": "",
          "type": "uint256"
        }
      ],
      "payable": false,
      "stateMutability": "view",
      "type": "function"
    },
    {
      "constant": true,
      "inputs": [],
      "name": "name",
      "outputs": [
        {
          "internalType": "string",
          "name": "",
          "type": "string"
        }
      ],
      "payable": false,
      "stateMutability": "view",
      "type": "function"
    },
    {
      "constant": true,
      "inputs": [],
      "name": "phase",
      "outputs": [
        {
          "internalType": "uint256",
          "name": "",
          "type": "uint256"
        }
      ],
      "payable": false,
      "stateMutability": "view",
      "type": "function"
    },
    {
      "constant": true,
      "inputs": [
        {
          "internalType": "uint256",
          "name": "",
          "type": "uint256"
        }
      ],
      "name": "voters",
      "outputs": [
        {
          "internalType": "uint256",
          "name": "id",
          "type": "uint256"
        },
        {
          "internalType": "address",
          "name": "voterId",
          "type": "address"
        },
        {
          "internalType": "string",
          "name": "googleId",
          "type": "string"
        },
        {
          "internalType": "bool",
          "name": "isVotingApproved",
          "type": "bool"
        }
      ],
      "payable": false,
      "stateMutability": "view",
      "type": "function"
    },
    {
      "constant": true,
      "inputs": [
        {
          "internalType": "address",
          "name": "",
          "type": "address"
        }
      ],
      "name": "votersCasted",
      "outputs": [
        {
          "internalType": "bool",
          "name": "",
          "type": "bool"
        }
      ],
      "payable": false,
      "stateMutability": "view",
      "type": "function"
    },
    {
      "constant": true,
      "inputs": [],
      "name": "votersCount",
      "outputs": [
        {
          "internalType": "uint256",
          "name": "",
          "type": "uint256"
        }
      ],
      "payable": false,
      "stateMutability": "view",
      "type": "function"
    },
    {
      "constant": false,
      "inputs": [
        {
          "internalType": "string",
          "name": "_name",
          "type": "string"
        }
      ],
      "name": "createCandidate",
      "outputs": [],
      "payable": false,
      "stateMutability": "nonpayable",
      "type": "function"
    },
    {
      "constant": false,
      "inputs": [],
      "name": "changePhase",
      "outputs": [],
      "payable": false,
      "stateMutability": "nonpayable",
      "type": "function"
    },
    {
      "constant": false,
      "inputs": [],
      "name": "resetPhase",
      "outputs": [],
      "payable": false,
      "stateMutability": "nonpayable",
      "type": "function"
    },
    {
      "constant": false,
      "inputs": [
        {
          "internalType": "string",
          "name": "_googleId",
          "type": "string"
        }
      ],
      "name": "registerVoter",
      "outputs": [],
      "payable": false,
      "stateMutability": "nonpayable",
      "type": "function"
    },
    {
      "constant": false,
      "inputs": [
        {
          "internalType": "address",
          "name": "_voterId",
          "type": "address"
        }
      ],
      "name": "approveVoter",
      "outputs": [],
      "payable": false,
      "stateMutability": "nonpayable",
      "type": "function"
    },
    {
      "constant": false,
      "inputs": [
        {
          "internalType": "uint256",
          "name": "_candidateId",
          "type": "uint256"
        }
      ],
      "name": "castVote",
      "outputs": [],
      "payable": false,
      "stateMutability": "nonpayable",
      "type": "function"
    },
    {
      "constant": true,
      "inputs": [
        {
          "internalType": "address",
          "name": "_voterId",
          "type": "address"
        },
        {
          "internalType": "string",
          "name": "_googleId",
          "type": "string"
        }
      ],
      "name": "getVoter",
      "outputs": [
        {
          "components": [
            {
              "internalType": "uint256",
              "name": "id",
              "type": "uint256"
            },
            {
              "internalType": "address",
              "name": "voterId",
              "type": "address"
            },
            {
              "internalType": "string",
              "name": "googleId",
              "type": "string"
            },
            {
              "internalType": "bool",
              "name": "isVotingApproved",
              "type": "bool"
            }
          ],
          "internalType": "struct VotingApp.Voter",
          "name": "",
          "type": "tuple"
        }
      ],
      "payable": false,
      "stateMutability": "view",
      "type": "function"
    }
  ],
  "bytecode": "0x60806040523480156200001157600080fd5b506040518060400160405280600981526020017f566f74696e674170700000000000000000000000000000000000000000000000815250600090805190602001906200005f92919062000105565b5033600260006101000a81548173ffffffffffffffffffffffffffffffffffffffff021916908373ffffffffffffffffffffffffffffffffffffffff1602179055506040518060400160405280601581526020017f313136393735343134313232313839333238393039000000000000000000000081525060019080519060200190620000ee92919062000105565b5060006003819055506000600581905550620001b4565b828054600181600116156101000203166002900490600052602060002090601f016020900481019282601f106200014857805160ff191683800117855562000179565b8280016001018555821562000179579182015b82811115620001785782518255916020019190600101906200015b565b5b5090506200018891906200018c565b5090565b620001b191905b80821115620001ad57600081600090555060010162000193565b5090565b90565b6124ad80620001c46000396000f3fe608060405234801561001057600080fd5b50600436106101005760003560e01c80635fba7a5611610097578063b1c9fe6e11610066578063b1c9fe6e14610289578063da58c7d9146102a7578063db6f5953146102da578063f851a440146102e457610100565b80635fba7a56146102155780636428a48614610231578063737eca7c1461024d57806398c079381461026b57610100565b80632d35a8a2116100d35780632d35a8a21461019f5780633477ee2e146101bd5780633eb76b9c146101ef57806344f919f81461020b57610100565b806304c783391461010557806306fdde0314610135578063119d4ddb146101535780632a4949581461016f575b600080fd5b61011f600480360361011a91908101906116dc565b610302565b60405161012c9190611f48565b60405180910390f35b61013d610322565b60405161014a9190611f63565b60405180910390f35b61016d600480360361016891908101906116dc565b6103c0565b005b61018960048036036101849190810190611705565b61067e565b6040516101969190612195565b60405180910390f35b6101a76108a3565b6040516101b491906121b7565b60405180910390f35b6101d760048036036101d2919081019061179a565b6108a9565b6040516101e69392919061226a565b60405180910390f35b6102096004803603610204919081019061179a565b61096b565b005b610213610d8e565b005b61022f600480360361022a9190810190611759565b610e61565b005b61024b60048036036102469190810190611759565b611033565b005b610255611272565b6040516102629190611f63565b60405180910390f35b610273611310565b60405161028091906121b7565b60405180910390f35b610291611316565b60405161029e91906121b7565b60405180910390f35b6102c160048036036102bc919081019061179a565b61131c565b6040516102d1949392919061221e565b60405180910390f35b6102e2611411565b005b6102ec611532565b6040516102f99190611f04565b60405180910390f35b60046020528060005260406000206000915054906101000a900460ff1681565b60008054600181600116156101000203166002900480601f0160208091040260200160405190810160405280929190818152602001828054600181600116156101000203166002900480156103b85780601f1061038d576101008083540402835291602001916103b8565b820191906000526020600020905b81548152906001019060200180831161039b57829003601f168201915b505050505081565b600260009054906101000a900473ffffffffffffffffffffffffffffffffffffffff1673ffffffffffffffffffffffffffffffffffffffff163373ffffffffffffffffffffffffffffffffffffffff1614610450576040517f08c379a000000000000000000000000000000000000000000000000000000000815260040161044790612015565b60405180910390fd5b60016003541015610496576040517f08c379a000000000000000000000000000000000000000000000000000000000815260040161048d90612095565b60405180910390fd5b600160035411156104dc576040517f08c379a00000000000000000000000000000000000000000000000000000000081526004016104d390612155565b60405180910390fd5b6104e4611558565b6104fd826040518060200160405280600081525061067e565b9050600073ffffffffffffffffffffffffffffffffffffffff16816020015173ffffffffffffffffffffffffffffffffffffffff161415610573576040517f08c379a000000000000000000000000000000000000000000000000000000000815260040161056a90612115565b60405180910390fd5b60018160600190151590811515815250508060066000836000015181526020019081526020016000206000820151816000015560208201518160010160006101000a81548173ffffffffffffffffffffffffffffffffffffffff021916908373ffffffffffffffffffffffffffffffffffffffff1602179055506040820151816002019080519060200190610609929190611598565b5060608201518160030160006101000a81548160ff0219169083151502179055509050507fcd4ccbdbd49b13bd331b13bd6f35973c6ebcf73665fa70870f6bb0a2ec4522e78160000151826020015183604001518460600151604051610672949392919061221e565b60405180910390a15050565b610686611558565b61068e611558565b6000600190505b6005548111610897578473ffffffffffffffffffffffffffffffffffffffff166006600083815260200190815260200160002060010160009054906101000a900473ffffffffffffffffffffffffffffffffffffffff1673ffffffffffffffffffffffffffffffffffffffff16148061073e57508380519060200120600660008381526020019081526020016000206002016040516107349190611eed565b6040518091039020145b1561088a5760066000828152602001908152602001600020604051806080016040529081600082015481526020016001820160009054906101000a900473ffffffffffffffffffffffffffffffffffffffff1673ffffffffffffffffffffffffffffffffffffffff1673ffffffffffffffffffffffffffffffffffffffff168152602001600282018054600181600116156101000203166002900480601f01602080910402602001604051908101604052809291908181526020018280546001816001161561010002031660029004801561085a5780601f1061082f5761010080835404028352916020019161085a565b820191906000526020600020905b81548152906001019060200180831161083d57829003601f168201915b505050505081526020016003820160009054906101000a900460ff1615151515815250509150819250505061089d565b8080600101915050610695565b50809150505b92915050565b60075481565b6008602052806000526040600020600091509050806000015490806001018054600181600116156101000203166002900480601f01602080910402602001604051908101604052809291908181526020018280546001816001161561010002031660029004801561095b5780601f106109305761010080835404028352916020019161095b565b820191906000526020600020905b81548152906001019060200180831161093e57829003601f168201915b5050505050908060020154905083565b600260035410156109b1576040517f08c379a00000000000000000000000000000000000000000000000000000000081526004016109a8906120b5565b60405180910390fd5b600260035411156109f7576040517f08c379a00000000000000000000000000000000000000000000000000000000081526004016109ee90611ff5565b60405180910390fd5b60018110158015610a0a57506007548111155b610a49576040517f08c379a0000000000000000000000000000000000000000000000000000000008152600401610a40906120d5565b60405180910390fd5b600073ffffffffffffffffffffffffffffffffffffffff16610a7a336040518060200160405280600081525061067e565b6020015173ffffffffffffffffffffffffffffffffffffffff161415610ad5576040517f08c379a0000000000000000000000000000000000000000000000000000000008152600401610acc90612115565b60405180910390fd5b610aee336040518060200160405280600081525061067e565b60600151610b31576040517f08c379a0000000000000000000000000000000000000000000000000000000008152600401610b2890612035565b60405180910390fd5b600460003373ffffffffffffffffffffffffffffffffffffffff1673ffffffffffffffffffffffffffffffffffffffff16815260200190815260200160002060009054906101000a900460ff1615610bbe576040517f08c379a0000000000000000000000000000000000000000000000000000000008152600401610bb590612135565b60405180910390fd5b6001600460003373ffffffffffffffffffffffffffffffffffffffff1673ffffffffffffffffffffffffffffffffffffffff16815260200190815260200160002060006101000a81548160ff021916908315150217905550610c1e611618565b6008600083815260200190815260200160002060405180606001604052908160008201548152602001600182018054600181600116156101000203166002900480601f016020809104026020016040519081016040528092919081815260200182805460018160011615610100020316600290048015610cdf5780601f10610cb457610100808354040283529160200191610cdf565b820191906000526020600020905b815481529060010190602001808311610cc257829003601f168201915b505050505081526020016002820154815250509050806040018051809190600101815250508060086000848152602001908152602001600020600082015181600001556020820151816001019080519060200190610d3e929190611598565b5060408201518160020155905050817fb7f6342badc0318f3dcf415faab08f04c60138973b79bc25d9608da1cf62c8ea338360400151604051610d82929190611f1f565b60405180910390a25050565b600260009054906101000a900473ffffffffffffffffffffffffffffffffffffffff1673ffffffffffffffffffffffffffffffffffffffff163373ffffffffffffffffffffffffffffffffffffffff1614610e1e576040517f08c379a0000000000000000000000000000000000000000000000000000000008152600401610e1590612015565b60405180910390fd5b60006003819055507fe05e29ee474a78de1664f90a8dd1d7cbaf6d365d9241a13c5af80c8296fcc016600354604051610e5791906121b7565b60405180910390a1565b600260009054906101000a900473ffffffffffffffffffffffffffffffffffffffff1673ffffffffffffffffffffffffffffffffffffffff163373ffffffffffffffffffffffffffffffffffffffff1614610ef1576040517f08c379a0000000000000000000000000000000000000000000000000000000008152600401610ee890612015565b60405180910390fd5b600060035414610f36576040517f08c379a0000000000000000000000000000000000000000000000000000000008152600401610f2d90612055565b60405180910390fd5b6000815111610f7a576040517f08c379a0000000000000000000000000000000000000000000000000000000008152600401610f7190611fb5565b60405180910390fd5b600760008154809291906001019190505550604051806060016040528060075481526020018281526020016000815250600860006007548152602001908152602001600020600082015181600001556020820151816001019080519060200190610fe5929190611598565b50604082015181600201559050506007547fc8e4928cc1f06d2079f8edd0c45562ab0beb2daaa11b1c0d0f05a9d3f7dd2063826000604051611028929190611f85565b60405180910390a250565b60016003541015611079576040517f08c379a0000000000000000000000000000000000000000000000000000000008152600401611070906120f5565b60405180910390fd5b600160035411156110bf576040517f08c379a00000000000000000000000000000000000000000000000000000000081526004016110b690612175565b60405180910390fd5b600073ffffffffffffffffffffffffffffffffffffffff166110e1338361067e565b6020015173ffffffffffffffffffffffffffffffffffffffff161461113b576040517f08c379a000000000000000000000000000000000000000000000000000000000815260040161113290612075565b60405180910390fd5b600560008154809291906001019190505550604051806080016040528060055481526020013373ffffffffffffffffffffffffffffffffffffffff168152602001828152602001600015158152506006600060055481526020019081526020016000206000820151816000015560208201518160010160006101000a81548173ffffffffffffffffffffffffffffffffffffffff021916908373ffffffffffffffffffffffffffffffffffffffff160217905550604082015181600201908051906020019061120b929190611598565b5060608201518160030160006101000a81548160ff0219169083151502179055509050507f87709ed06b7e57ea4500846530538d29719f5386227b5a663629a32a07b9da916005543383600060405161126794939291906121d2565b60405180910390a150565b60018054600181600116156101000203166002900480601f0160208091040260200160405190810160405280929190818152602001828054600181600116156101000203166002900480156113085780601f106112dd57610100808354040283529160200191611308565b820191906000526020600020905b8154815290600101906020018083116112eb57829003601f168201915b505050505081565b60055481565b60035481565b60066020528060005260406000206000915090508060000154908060010160009054906101000a900473ffffffffffffffffffffffffffffffffffffffff1690806002018054600181600116156101000203166002900480601f0160208091040260200160405190810160405280929190818152602001828054600181600116156101000203166002900480156113f45780601f106113c9576101008083540402835291602001916113f4565b820191906000526020600020905b8154815290600101906020018083116113d757829003601f168201915b5050505050908060030160009054906101000a900460ff16905084565b600260009054906101000a900473ffffffffffffffffffffffffffffffffffffffff1673ffffffffffffffffffffffffffffffffffffffff163373ffffffffffffffffffffffffffffffffffffffff16146114a1576040517f08c379a000000000000000000000000000000000000000000000000000000000815260040161149890612015565b60405180910390fd5b60038054106114e5576040517f08c379a00000000000000000000000000000000000000000000000000000000081526004016114dc90611fd5565b60405180910390fd5b6003600081548092919060010191905055507fe05e29ee474a78de1664f90a8dd1d7cbaf6d365d9241a13c5af80c8296fcc01660035460405161152891906121b7565b60405180910390a1565b600260009054906101000a900473ffffffffffffffffffffffffffffffffffffffff1681565b604051806080016040528060008152602001600073ffffffffffffffffffffffffffffffffffffffff168152602001606081526020016000151581525090565b828054600181600116156101000203166002900490600052602060002090601f016020900481019282601f106115d957805160ff1916838001178555611607565b82800160010185558215611607579182015b828111156116065782518255916020019190600101906115eb565b5b5090506116149190611639565b5090565b60405180606001604052806000815260200160608152602001600081525090565b61165b91905b8082111561165757600081600090555060010161163f565b5090565b90565b60008135905061166d8161243c565b92915050565b600082601f83011261168457600080fd5b8135611697611692826122d5565b6122a8565b915080825260208301602083018583830111156116b357600080fd5b6116be8382846123e9565b50505092915050565b6000813590506116d681612453565b92915050565b6000602082840312156116ee57600080fd5b60006116fc8482850161165e565b91505092915050565b6000806040838503121561171857600080fd5b60006117268582860161165e565b925050602083013567ffffffffffffffff81111561174357600080fd5b61174f85828601611673565b9150509250929050565b60006020828403121561176b57600080fd5b600082013567ffffffffffffffff81111561178557600080fd5b61179184828501611673565b91505092915050565b6000602082840312156117ac57600080fd5b60006117ba848285016116c7565b91505092915050565b6117cc816123a1565b82525050565b6117db81612359565b82525050565b6117ea81612359565b82525050565b6117f98161236b565b82525050565b6118088161236b565b82525050565b60008154600181166000811461182b576001811461185057611894565b607f600283041661183c818761232c565b955060ff1983168652808601935050611894565b6002820461185e818761232c565b955061186985612301565b60005b8281101561188b5781548189015260018201915060208101905061186c565b82880195505050505b505092915050565b6118a5816123b3565b82525050565b60006118b682612321565b6118c08185612348565b93506118d08185602086016123f8565b6118d98161242b565b840191505092915050565b60006118ef82612316565b6118f98185612337565b93506119098185602086016123f8565b6119128161242b565b840191505092915050565b600061192882612316565b6119328185612348565b93506119428185602086016123f8565b61194b8161242b565b840191505092915050565b6000611963601b83612348565b91507f43616e646964617465206e616d652069732072657175697265642100000000006000830152602082019050919050565b60006119a3601183612348565b91507f456c656374696f6e206973206f766572210000000000000000000000000000006000830152602082019050919050565b60006119e3601583612348565b91507f566f74696e67207068617365206973206f7665722100000000000000000000006000830152602082019050919050565b6000611a23602c83612348565b91507f4f6e6c792061646d696e20697320616c6c6f77656420746f20706572666f726d60008301527f207468697320616374696f6e00000000000000000000000000000000000000006020830152604082019050919050565b6000611a89602283612348565b91507f566f746572206973206e6f7420617070726f76656420746f206361737420766f60008301527f74650000000000000000000000000000000000000000000000000000000000006020830152604082019050919050565b6000611aef602583612348565b91507f43616e64696461746520526567697374726174696f6e2070686173652069732060008301527f6f766572210000000000000000000000000000000000000000000000000000006020830152604082019050919050565b6000611b55601c83612348565b91507f566f74657220697320616c7265616479207265676973746572656421000000006000830152602082019050919050565b6000611b95604c83612348565b91507f526567697374726174696f6e207068617365206973206e6f742073746172746560008301527f642e2041646d696e2063616e20617070726f7665206f6e6c7920647572696e6760208301527f20746861742070686173652100000000000000000000000000000000000000006040830152606082019050919050565b6000611c21601c83612348565b91507f566f74696e67207068617365206973206e6f74207374617274656421000000006000830152602082019050919050565b6000611c61601583612348565b91507f496e76616c69642063616e6469646174652049442100000000000000000000006000830152602082019050919050565b6000611ca1602283612348565b91507f526567697374726174696f6e207068617365206973206e6f742073746172746560008301527f64210000000000000000000000000000000000000000000000000000000000006020830152604082019050919050565b6000611d07601783612348565b91507f566f746572206973206e6f7420726567697374657265640000000000000000006000830152602082019050919050565b6000611d47602183612348565b91507f566f7465722068617320616c7265616479206361737465642068697320766f7460008301527f65000000000000000000000000000000000000000000000000000000000000006020830152604082019050919050565b6000611dad604583612348565b91507f526567697374726174696f6e207068617365206973206f7665722e2041646d6960008301527f6e2063616e20617070726f7665206f6e6c7920647572696e672074686174207060208301527f68617365210000000000000000000000000000000000000000000000000000006040830152606082019050919050565b6000611e39601b83612348565b91507f526567697374726174696f6e207068617365206973206f7665722100000000006000830152602082019050919050565b6000608083016000830151611e846000860182611ecf565b506020830151611e9760208601826117d2565b5060408301518482036040860152611eaf82826118e4565b9150506060830151611ec460608601826117f0565b508091505092915050565b611ed881612397565b82525050565b611ee781612397565b82525050565b6000611ef9828461180e565b915081905092915050565b6000602082019050611f1960008301846117e1565b92915050565b6000604082019050611f3460008301856117c3565b611f416020830184611ede565b9392505050565b6000602082019050611f5d60008301846117ff565b92915050565b60006020820190508181036000830152611f7d818461191d565b905092915050565b60006040820190508181036000830152611f9f81856118ab565b9050611fae602083018461189c565b9392505050565b60006020820190508181036000830152611fce81611956565b9050919050565b60006020820190508181036000830152611fee81611996565b9050919050565b6000602082019050818103600083015261200e816119d6565b9050919050565b6000602082019050818103600083015261202e81611a16565b9050919050565b6000602082019050818103600083015261204e81611a7c565b9050919050565b6000602082019050818103600083015261206e81611ae2565b9050919050565b6000602082019050818103600083015261208e81611b48565b9050919050565b600060208201905081810360008301526120ae81611b88565b9050919050565b600060208201905081810360008301526120ce81611c14565b9050919050565b600060208201905081810360008301526120ee81611c54565b9050919050565b6000602082019050818103600083015261210e81611c94565b9050919050565b6000602082019050818103600083015261212e81611cfa565b9050919050565b6000602082019050818103600083015261214e81611d3a565b9050919050565b6000602082019050818103600083015261216e81611da0565b9050919050565b6000602082019050818103600083015261218e81611e2c565b9050919050565b600060208201905081810360008301526121af8184611e6c565b905092915050565b60006020820190506121cc6000830184611ede565b92915050565b60006080820190506121e76000830187611ede565b6121f460208301866117c3565b818103604083015261220681856118ab565b905061221560608301846117ff565b95945050505050565b60006080820190506122336000830187611ede565b61224060208301866117e1565b8181036040830152612252818561191d565b905061226160608301846117ff565b95945050505050565b600060608201905061227f6000830186611ede565b8181036020830152612291818561191d565b90506122a06040830184611ede565b949350505050565b6000604051905081810181811067ffffffffffffffff821117156122cb57600080fd5b8060405250919050565b600067ffffffffffffffff8211156122ec57600080fd5b601f19601f8301169050602081019050919050565b60008190508160005260206000209050919050565b600081519050919050565b600081519050919050565b600081905092915050565b600082825260208201905092915050565b600082825260208201905092915050565b600061236482612377565b9050919050565b60008115159050919050565b600073ffffffffffffffffffffffffffffffffffffffff82169050919050565b6000819050919050565b60006123ac826123c5565b9050919050565b60006123be82612397565b9050919050565b60006123d0826123d7565b9050919050565b60006123e282612377565b9050919050565b82818337600083830152505050565b60005b838110156124165780820151818401526020810190506123fb565b83811115612425576000848401525b50505050565b6000601f19601f8301169050919050565b61244581612359565b811461245057600080fd5b50565b61245c81612397565b811461246757600080fd5b5056fea365627a7a723158205f3bd1ba9047c37caf423e53b98b23796ee99f16a0be75968fd3015fabd0e44d6c6578706572696d656e74616cf564736f6c63430005100040",
  "source": "pragma solidity ^0.5.0;\r\npragma experimental ABIEncoderV2;\r\n\r\ncontract VotingApp{\r\n\t// Admin\r\n\tstring public name;\r\n\tstring public adminGoogleId;\r\n\taddress public admin;\r\n\r\n\t// Store phase\r\n\tuint public phase;\r\n\t/*\r\n\t\t0: Election is announced to be held and candidates can be created by admin\r\n\t\t1: Registration - Voters can register\r\n\t\t2: Voting - Voters are eligigle to vote. No new candidates!\r\n\t\t3: Results - No more voting!\r\n\t*/\r\n\r\n\t// Store voters\r\n\tmapping(address => bool) public votersCasted;\r\n\tuint public votersCount;\r\n\tmapping(uint => Voter) public voters;\r\n\tstruct Voter{\r\n\t\tuint id;\r\n\t\taddress voterId;\r\n\t\tstring googleId;\r\n\t\tbool isVotingApproved;\r\n\t}\r\n\r\n\r\n\t// Store candidates\r\n\tuint public candidatesCount;\r\n\tmapping(uint => Candidate) public candidates;\r\n\tstruct Candidate{\r\n\t\tuint candidateId;\r\n\t\tstring name;\r\n\t\tuint votesCount;\r\n\t}\r\n\r\n\tconstructor() public{\r\n\t\tname = \"VotingApp\";\r\n\t\tadmin = msg.sender;\r\n\t\tadminGoogleId = \"116975414122189328909\";\r\n\r\n\t\tphase = 0;\r\n\t\tvotersCount = 0;\r\n\t}\r\n\r\n\t/* Modifiers */\r\n\tmodifier onlyAdmin{\r\n\t\trequire(msg.sender == admin, \"Only admin is allowed to perform this action\");\r\n\t\t_;\r\n\t}\r\n\r\n\t/* Events */\r\n\tevent PhaseChanged(uint phase);\r\n\tevent CandidateCreated(uint indexed candidateId, string name, uint votesCount);\r\n\tevent CastedVote(uint indexed candidateId, address voterId, uint votesCount);\r\n\tevent VoterRegistered(uint id, address voterId, string googleId, bool isVotingApproved);\r\n\tevent VoterAprroved(uint id, address voterId, string googleId, bool isVotingApproved);\r\n\r\n\t/* Functions */\r\n\tfunction createCandidate(string memory _name) public onlyAdmin {\r\n\t\t// Make sure phase is right\r\n\t\trequire(phase == 0, \"Candidate Registration phase is over!\");\r\n\r\n\t\t// Make sure the inputs exists\r\n\t\trequire(bytes(_name).length > 0, \"Candidate name is required!\");\r\n\r\n\t\t// Add candidate\r\n\t\tcandidatesCount++;\r\n\t\tcandidates[candidatesCount] = Candidate(candidatesCount, _name, 0);\r\n\r\n\t\t// Trigger event\r\n\t\temit CandidateCreated(candidatesCount, _name, 0);\r\n\t}\r\n\r\n\tfunction changePhase() public onlyAdmin{\r\n\t\trequire(phase < 3, \"Election is over!\");\r\n\r\n\t\tphase++;\r\n\r\n\t\temit PhaseChanged(phase);\r\n\t}\r\n\r\n\tfunction resetPhase() public onlyAdmin{\r\n\t\tphase=0;\r\n\r\n\t\temit PhaseChanged(phase);\r\n\t}\r\n\r\n\tfunction registerVoter(string memory _googleId) public {\r\n\t\t// Make sure it is registration phase\r\n\t\tif(phase < 1){\r\n\t\t\trevert('Registration phase is not started!');\r\n\t\t}\r\n\t\tif(phase > 1){\r\n\t\t\trevert('Registration phase is over!');\r\n\t\t}\r\n\r\n\t\t// Make sure voter is not yet registered\r\n\t\trequire(getVoter(msg.sender, _googleId).voterId == address(0x0), \"Voter is already registered!\");\r\n\r\n\t\t// Add voter\r\n\t\tvotersCount++;\r\n\t\tvoters[votersCount] = Voter(votersCount, msg.sender, _googleId, false);\r\n\r\n\t\t// Trigger event\r\n\t\temit VoterRegistered(votersCount, msg.sender, _googleId, false);\r\n\t}\r\n\r\n\tfunction approveVoter(address _voterId) public onlyAdmin{\r\n\t\t// Make sure it is registration phase\r\n\t\tif(phase < 1){\r\n\t\t\trevert('Registration phase is not started. Admin can approve only during that phase!');\r\n\t\t}\r\n\t\tif(phase > 1){\r\n\t\t\trevert('Registration phase is over. Admin can approve only during that phase!');\r\n\t\t}\r\n\r\n\t\tVoter memory _voter = getVoter(_voterId, \"\");\r\n\t\t\r\n\t\t// Make sure voter exists\r\n\t\trequire(_voter.voterId != address(0x0), 'Voter is not registered');\r\n\r\n\t\t// Approve voter\r\n\t\t_voter.isVotingApproved = true;\r\n\t\tvoters[_voter.id] = _voter;\r\n\r\n\t\t// Trigger event\r\n\t\temit VoterAprroved(_voter.id, _voter.voterId, _voter.googleId, _voter.isVotingApproved);\r\n\t}\r\n\r\n\tfunction castVote(uint _candidateId) public{\r\n\t\t// Make sure it is Voting phase\r\n\t\tif(phase < 2){\r\n\t\t\trevert('Voting phase is not started!');\r\n\t\t}\r\n\t\tif(phase > 2){\r\n\t\t\trevert('Voting phase is over!');\r\n\t\t}\r\n\r\n\t\t// Make sure candidate id is valid\r\n\t\trequire(_candidateId >= 1 && _candidateId <= candidatesCount, 'Invalid candidate ID!');\r\n\r\n\t\t// Make sure voter exists\r\n\t\trequire(getVoter(msg.sender, \"\").voterId != address(0x0), 'Voter is not registered');\r\n\t\t// Make sure voter has been approved\r\n\t\trequire(getVoter(msg.sender, \"\").isVotingApproved, 'Voter is not approved to cast vote');\r\n\r\n\t\t// Make sure voter has not casted yet\r\n\t\trequire(!votersCasted[msg.sender], 'Voter has already casted his vote');\r\n\r\n\t\t// Cast vote\r\n\t\tvotersCasted[msg.sender] = true;\r\n\t\tCandidate memory _candidate = candidates[_candidateId];\r\n\t\t_candidate.votesCount++;\r\n\t\tcandidates[_candidateId] = _candidate;\r\n\r\n\t\t// Trigger event\r\n\t\temit CastedVote(_candidateId, msg.sender, _candidate.votesCount);\r\n\t}\r\n\r\n\t// Helper functions\r\n\tfunction getVoter(address _voterId, string memory _googleId) public view returns(Voter memory){\r\n\t\tVoter memory _voter;\r\n\t\tfor(uint i=1; i <= votersCount; i++){\r\n\t\t\tif(voters[i].voterId == _voterId || keccak256(bytes(voters[i].googleId)) == keccak256(bytes(_googleId))){\r\n\t\t\t\t_voter = voters[i]; \r\n\t\t\t\treturn _voter;\r\n\t\t\t}\r\n\t\t}\r\n\t\treturn _voter;\r\n\t}\r\n}",
  "sourcePath": "D:\\Engineering\\Dev\\Blockchain Development\\Projects\\VotingApp\\src\\contracts\\VotingApp.sol",
  "compiler": {
    "name": "solc",
    "version": "0.5.16+commit.9c3226ce.Emscripten.clang"
  },
  "schemaVersion": "3.4.3",
  "updatedAt": "2021-11-15T13:41:22.044Z",
  "networkType": "ethereum",
  "devdoc": {
    "methods": {}
  },
  "userdoc": {
    "methods": {}
  }
}